{
  "contractName": "CrowdSale",
  "abi": [
    {
      "constant": true,
      "inputs": [],
      "name": "deadline",
      "outputs": [
        {
          "name": "",
          "type": "uint256"
        }
      ],
      "payable": false,
      "stateMutability": "view",
      "type": "function"
    },
    {
      "constant": true,
      "inputs": [],
      "name": "beneficiary",
      "outputs": [
        {
          "name": "",
          "type": "address"
        }
      ],
      "payable": false,
      "stateMutability": "view",
      "type": "function"
    },
    {
      "constant": true,
      "inputs": [
        {
          "name": "",
          "type": "address"
        }
      ],
      "name": "balanceOf",
      "outputs": [
        {
          "name": "",
          "type": "uint256"
        }
      ],
      "payable": false,
      "stateMutability": "view",
      "type": "function"
    },
    {
      "constant": true,
      "inputs": [],
      "name": "fundingGoal",
      "outputs": [
        {
          "name": "",
          "type": "uint256"
        }
      ],
      "payable": false,
      "stateMutability": "view",
      "type": "function"
    },
    {
      "constant": true,
      "inputs": [],
      "name": "amountRaised",
      "outputs": [
        {
          "name": "",
          "type": "uint256"
        }
      ],
      "payable": false,
      "stateMutability": "view",
      "type": "function"
    },
    {
      "constant": true,
      "inputs": [],
      "name": "price",
      "outputs": [
        {
          "name": "",
          "type": "uint256"
        }
      ],
      "payable": false,
      "stateMutability": "view",
      "type": "function"
    },
    {
      "constant": true,
      "inputs": [],
      "name": "isCrowdSaleClosed",
      "outputs": [
        {
          "name": "",
          "type": "bool"
        }
      ],
      "payable": false,
      "stateMutability": "view",
      "type": "function"
    },
    {
      "constant": true,
      "inputs": [],
      "name": "isGoalReached",
      "outputs": [
        {
          "name": "",
          "type": "bool"
        }
      ],
      "payable": false,
      "stateMutability": "view",
      "type": "function"
    },
    {
      "inputs": [
        {
          "name": "_ifSuccessfulSendFundTo",
          "type": "address"
        },
        {
          "name": "_fundGoalInEther",
          "type": "uint256"
        },
        {
          "name": "_deadlineInMinutes",
          "type": "uint256"
        },
        {
          "name": "_costOfEachTokenInEther",
          "type": "uint256"
        },
        {
          "name": "_addressOfToken",
          "type": "address"
        }
      ],
      "payable": false,
      "stateMutability": "nonpayable",
      "type": "constructor"
    },
    {
      "payable": true,
      "stateMutability": "payable",
      "type": "fallback"
    },
    {
      "anonymous": false,
      "inputs": [
        {
          "indexed": false,
          "name": "_recipent",
          "type": "address"
        },
        {
          "indexed": false,
          "name": "_totalAmountRaised",
          "type": "uint256"
        }
      ],
      "name": "GoalReached",
      "type": "event"
    },
    {
      "anonymous": false,
      "inputs": [
        {
          "indexed": false,
          "name": "_recipent",
          "type": "address"
        },
        {
          "indexed": false,
          "name": "_amountEther",
          "type": "uint256"
        },
        {
          "indexed": false,
          "name": "_isPurchased",
          "type": "bool"
        }
      ],
      "name": "FundTransfered",
      "type": "event"
    },
    {
      "constant": false,
      "inputs": [],
      "name": "checkGoalReached",
      "outputs": [],
      "payable": false,
      "stateMutability": "nonpayable",
      "type": "function"
    },
    {
      "constant": false,
      "inputs": [],
      "name": "withdraw",
      "outputs": [],
      "payable": false,
      "stateMutability": "nonpayable",
      "type": "function"
    }
  ],
  "bytecode": "0x60806040526000600560006101000a81548160ff0219169083151502179055506000600560016101000a81548160ff0219169083151502179055506100426101a5565b604051809103906000f08015801561005e573d6000803e3d6000fd5b50600760006101000a81548173ffffffffffffffffffffffffffffffffffffffff021916908373ffffffffffffffffffffffffffffffffffffffff1602179055503480156100ab57600080fd5b5060405160a0806128cc833981018060405260a08110156100cb57600080fd5b810190808051906020019092919080519060200190929190805190602001909291908051906020019092919080519060200190929190505050846000806101000a81548173ffffffffffffffffffffffffffffffffffffffff021916908373ffffffffffffffffffffffffffffffffffffffff1602179055508360018190555082420160048190555081600281905550806000806101000a81548173ffffffffffffffffffffffffffffffffffffffff021916908373ffffffffffffffffffffffffffffffffffffffff16021790555050505050506101b5565b604051611df880610ad483390190565b610910806101c46000396000f3fe6080604052600436106100a4576000357c0100000000000000000000000000000000000000000000000000000000900463ffffffff16806301cb3b20146102fe57806329dcb0cf1461031557806338af3eed146103405780633ccfd60b1461039757806370a08231146103ae5780637a3a0e84146104135780637b3e5e7b1461043e578063a035b1fe14610469578063a26d7b9414610494578063d3eb6f61146104c3575b600560019054906101000a900460ff161515156100c057600080fd5b600034905061011781600660003373ffffffffffffffffffffffffffffffffffffffff1673ffffffffffffffffffffffffffffffffffffffff168152602001908152602001600020546104f290919063ffffffff16565b600660003373ffffffffffffffffffffffffffffffffffffffff1673ffffffffffffffffffffffffffffffffffffffff1681526020019081526020016000208190555061016f816003546104f290919063ffffffff16565b600381905550600760009054906101000a900473ffffffffffffffffffffffffffffffffffffffff1673ffffffffffffffffffffffffffffffffffffffff1663a9059cbb33600254848115156101c157fe5b046040518363ffffffff167c0100000000000000000000000000000000000000000000000000000000028152600401808373ffffffffffffffffffffffffffffffffffffffff1673ffffffffffffffffffffffffffffffffffffffff16815260200182815260200192505050602060405180830381600087803b15801561024757600080fd5b505af115801561025b573d6000803e3d6000fd5b505050506040513d602081101561027157600080fd5b8101908080519060200190929190505050507f8bf7e7cad89d3e1b4e1a8ae1855a3e589338ae57f8f0862ab8a48c3ad11c92cd33826001604051808473ffffffffffffffffffffffffffffffffffffffff1673ffffffffffffffffffffffffffffffffffffffff16815260200183815260200182151515158152602001935050505060405180910390a150005b34801561030a57600080fd5b5061031361050e565b005b34801561032157600080fd5b5061032a610565565b6040518082815260200191505060405180910390f35b34801561034c57600080fd5b5061035561056b565b604051808273ffffffffffffffffffffffffffffffffffffffff1673ffffffffffffffffffffffffffffffffffffffff16815260200191505060405180910390f35b3480156103a357600080fd5b506103ac610590565b005b3480156103ba57600080fd5b506103fd600480360360208110156103d157600080fd5b81019080803573ffffffffffffffffffffffffffffffffffffffff169060200190929190505050610894565b6040518082815260200191505060405180910390f35b34801561041f57600080fd5b506104286108ac565b6040518082815260200191505060405180910390f35b34801561044a57600080fd5b506104536108b2565b6040518082815260200191505060405180910390f35b34801561047557600080fd5b5061047e6108b8565b6040518082815260200191505060405180910390f35b3480156104a057600080fd5b506104a96108be565b604051808215151515815260200191505060405180910390f35b3480156104cf57600080fd5b506104d86108d1565b604051808215151515815260200191505060405180910390f35b6000818301905082811015151561050857600080fd5b92915050565b600454421015151561051f57600080fd5b600154600354101515610548576001600560006101000a81548160ff0219169083151502179055505b6001600560016101000a81548160ff021916908315150217905550565b60045481565b6000809054906101000a900473ffffffffffffffffffffffffffffffffffffffff1681565b60045442101515156105a157600080fd5b600560009054906101000a900460ff16151561074c576000600660003373ffffffffffffffffffffffffffffffffffffffff1673ffffffffffffffffffffffffffffffffffffffff1681526020019081526020016000205490506000600660003373ffffffffffffffffffffffffffffffffffffffff1673ffffffffffffffffffffffffffffffffffffffff168152602001908152602001600020819055506000811115610746573373ffffffffffffffffffffffffffffffffffffffff166108fc829081150290604051600060405180830381858888f1935050505015610700577f8bf7e7cad89d3e1b4e1a8ae1855a3e589338ae57f8f0862ab8a48c3ad11c92cd33826000604051808473ffffffffffffffffffffffffffffffffffffffff1673ffffffffffffffffffffffffffffffffffffffff16815260200183815260200182151515158152602001935050505060405180910390a1610745565b80600660003373ffffffffffffffffffffffffffffffffffffffff1673ffffffffffffffffffffffffffffffffffffffff168152602001908152602001600020819055505b5b50610892565b600560009054906101000a900460ff1680156107b457506000809054906101000a900473ffffffffffffffffffffffffffffffffffffffff1673ffffffffffffffffffffffffffffffffffffffff163373ffffffffffffffffffffffffffffffffffffffff16145b15610891573373ffffffffffffffffffffffffffffffffffffffff166108fc6003549081150290604051600060405180830381858888f1935050505015610874577f8bf7e7cad89d3e1b4e1a8ae1855a3e589338ae57f8f0862ab8a48c3ad11c92cd336003546000604051808473ffffffffffffffffffffffffffffffffffffffff1673ffffffffffffffffffffffffffffffffffffffff16815260200183815260200182151515158152602001935050505060405180910390a1610890565b6000600560006101000a81548160ff0219169083151502179055505b5b5b565b60066020528060005260406000206000915090505481565b60015481565b60035481565b60025481565b600560019054906101000a900460ff1681565b600560009054906101000a900460ff168156fea165627a7a72305820cab589169cd36367ad649ad7b9280a7c243d39628d917d1ad8b628803bde4e0100296080604052608060405190810160405280601260ff16600a0a6298968002815260200160008152602001428152602001603c81525060046000820151816000015560208201518160010155604082015181600201556060820151816003015550503480156200006d57600080fd5b50336000806101000a81548173ffffffffffffffffffffffffffffffffffffffff021916908373ffffffffffffffffffffffffffffffffffffffff160217905550601260ff16600a0a6302faf08002600260008060009054906101000a900473ffffffffffffffffffffffffffffffffffffffff1673ffffffffffffffffffffffffffffffffffffffff1673ffffffffffffffffffffffffffffffffffffffff168152602001908152602001600020819055506000809054906101000a900473ffffffffffffffffffffffffffffffffffffffff1673ffffffffffffffffffffffffffffffffffffffff16600073ffffffffffffffffffffffffffffffffffffffff167fddf252ad1be2c89b69c2b068fc378daa952ba7f163c4a11628f55a4df523b3ef601260ff16600a0a6302faf080026040518082815260200191505060405180910390a3620001d3600460000154620001d9640100000000026401000000009004565b62000485565b6000809054906101000a900473ffffffffffffffffffffffffffffffffffffffff1673ffffffffffffffffffffffffffffffffffffffff163373ffffffffffffffffffffffffffffffffffffffff161415156200023557600080fd5b620002b881600260008060009054906101000a900473ffffffffffffffffffffffffffffffffffffffff1673ffffffffffffffffffffffffffffffffffffffff1673ffffffffffffffffffffffffffffffffffffffff168152602001908152602001600020546200044b64010000000002620018ff179091906401000000009004565b600260008060009054906101000a900473ffffffffffffffffffffffffffffffffffffffff1673ffffffffffffffffffffffffffffffffffffffff1673ffffffffffffffffffffffffffffffffffffffff168152602001908152602001600020819055506200037e81600260008073ffffffffffffffffffffffffffffffffffffffff1673ffffffffffffffffffffffffffffffffffffffff1681526020019081526020016000205462000468640100000000026200191b179091906401000000009004565b600260008073ffffffffffffffffffffffffffffffffffffffff1673ffffffffffffffffffffffffffffffffffffffff16815260200190815260200160002081905550600073ffffffffffffffffffffffffffffffffffffffff166000809054906101000a900473ffffffffffffffffffffffffffffffffffffffff1673ffffffffffffffffffffffffffffffffffffffff167fddf252ad1be2c89b69c2b068fc378daa952ba7f163c4a11628f55a4df523b3ef836040518082815260200191505060405180910390a350565b60008282111515156200045d57600080fd5b818303905092915050565b600081830190508281101515156200047f57600080fd5b92915050565b61196380620004956000396000f3fe6080604052600436106100f1576000357c0100000000000000000000000000000000000000000000000000000000900463ffffffff16806306fdde03146100f6578063095ea7b31461018657806318160ddd146101f957806323b872dd14610224578063244ded7a146102b7578063313ce567146103085780633fab62ba146103395780636d6a6a4d146103505780636e27d8891461037b57806370a08231146103b657806383f12fec1461041b5780638ea26f5c1461050257806395d89b411461052d578063a9059cbb146105bd578063cf30901214610630578063dd62ed3e14610670578063f968f493146106f5575b600080fd5b34801561010257600080fd5b5061010b610724565b6040518080602001828103825283818151815260200191508051906020019080838360005b8381101561014b578082015181840152602081019050610130565b50505050905090810190601f1680156101785780820380516001836020036101000a031916815260200191505b509250505060405180910390f35b34801561019257600080fd5b506101df600480360360408110156101a957600080fd5b81019080803573ffffffffffffffffffffffffffffffffffffffff1690602001909291908035906020019092919050505061075d565b604051808215151515815260200191505060405180910390f35b34801561020557600080fd5b5061020e61084f565b6040518082815260200191505060405180910390f35b34801561023057600080fd5b5061029d6004803603606081101561024757600080fd5b81019080803573ffffffffffffffffffffffffffffffffffffffff169060200190929190803573ffffffffffffffffffffffffffffffffffffffff169060200190929190803590602001909291905050506108b5565b604051808215151515815260200191505060405180910390f35b3480156102c357600080fd5b50610306600480360360208110156102da57600080fd5b81019080803573ffffffffffffffffffffffffffffffffffffffff169060200190929190505050610c39565b005b34801561031457600080fd5b5061031d610cd8565b604051808260ff1660ff16815260200191505060405180910390f35b34801561034557600080fd5b5061034e610cdd565b005b34801561035c57600080fd5b50610365610d9d565b6040518082815260200191505060405180910390f35b34801561038757600080fd5b506103b46004803603602081101561039e57600080fd5b8101908080359060200190929190505050610da8565b005b3480156103c257600080fd5b50610405600480360360208110156103d957600080fd5b81019080803573ffffffffffffffffffffffffffffffffffffffff169060200190929190505050610ff9565b6040518082815260200191505060405180910390f35b34801561042757600080fd5b506104e86004803603604081101561043e57600080fd5b810190808035906020019064010000000081111561045b57600080fd5b82018360208201111561046d57600080fd5b8035906020019184602083028401116401000000008311171561048f57600080fd5b919080806020026020016040519081016040528093929190818152602001838360200280828437600081840152601f19601f82011690508083019250505050505050919291929080359060200190929190505050611042565b604051808215151515815260200191505060405180910390f35b34801561050e57600080fd5b50610517611367565b6040518082815260200191505060405180910390f35b34801561053957600080fd5b50610542611378565b6040518080602001828103825283818151815260200191508051906020019080838360005b83811015610582578082015181840152602081019050610567565b50505050905090810190601f1680156105af5780820380516001836020036101000a031916815260200191505b509250505060405180910390f35b3480156105c957600080fd5b50610616600480360360408110156105e057600080fd5b81019080803573ffffffffffffffffffffffffffffffffffffffff169060200190929190803590602001909291905050506113b1565b604051808215151515815260200191505060405180910390f35b34801561063c57600080fd5b5061064561159a565b6040518085815260200184815260200183815260200182815260200194505050505060405180910390f35b34801561067c57600080fd5b506106df6004803603604081101561069357600080fd5b81019080803573ffffffffffffffffffffffffffffffffffffffff169060200190929190803573ffffffffffffffffffffffffffffffffffffffff1690602001909291905050506115b8565b6040518082815260200191505060405180910390f35b34801561070157600080fd5b5061070a61163f565b604051808215151515815260200191505060405180910390f35b6040805190810160405280600881526020017f414d20546f6b656e00000000000000000000000000000000000000000000000081525081565b600081600360003373ffffffffffffffffffffffffffffffffffffffff1673ffffffffffffffffffffffffffffffffffffffff16815260200190815260200160002060008573ffffffffffffffffffffffffffffffffffffffff1673ffffffffffffffffffffffffffffffffffffffff168152602001908152602001600020819055508273ffffffffffffffffffffffffffffffffffffffff163373ffffffffffffffffffffffffffffffffffffffff167f8c5be1e5ebec7d5bd14f71427d1e84f3dd0314c0f7b2291e5b200ac8c7c3b925846040518082815260200191505060405180910390a36001905092915050565b60006108b0600260008073ffffffffffffffffffffffffffffffffffffffff1673ffffffffffffffffffffffffffffffffffffffff16815260200190815260200160002054601260ff16600a0a6302faf080026118ff90919063ffffffff16565b905090565b600081600260008673ffffffffffffffffffffffffffffffffffffffff1673ffffffffffffffffffffffffffffffffffffffff168152602001908152602001600020541015151561090557600080fd5b81600360008673ffffffffffffffffffffffffffffffffffffffff1673ffffffffffffffffffffffffffffffffffffffff16815260200190815260200160002060003373ffffffffffffffffffffffffffffffffffffffff1673ffffffffffffffffffffffffffffffffffffffff168152602001908152602001600020541015151561099057600080fd5b6109e282600260008773ffffffffffffffffffffffffffffffffffffffff1673ffffffffffffffffffffffffffffffffffffffff168152602001908152602001600020546118ff90919063ffffffff16565b600260008673ffffffffffffffffffffffffffffffffffffffff1673ffffffffffffffffffffffffffffffffffffffff16815260200190815260200160002081905550610a7782600260008673ffffffffffffffffffffffffffffffffffffffff1673ffffffffffffffffffffffffffffffffffffffff1681526020019081526020016000205461191b90919063ffffffff16565b600260008573ffffffffffffffffffffffffffffffffffffffff1673ffffffffffffffffffffffffffffffffffffffff16815260200190815260200160002081905550610b4982600360008773ffffffffffffffffffffffffffffffffffffffff1673ffffffffffffffffffffffffffffffffffffffff16815260200190815260200160002060003373ffffffffffffffffffffffffffffffffffffffff1673ffffffffffffffffffffffffffffffffffffffff168152602001908152602001600020546118ff90919063ffffffff16565b600360008673ffffffffffffffffffffffffffffffffffffffff1673ffffffffffffffffffffffffffffffffffffffff16815260200190815260200160002060003373ffffffffffffffffffffffffffffffffffffffff1673ffffffffffffffffffffffffffffffffffffffff168152602001908152602001600020819055508273ffffffffffffffffffffffffffffffffffffffff168473ffffffffffffffffffffffffffffffffffffffff167fddf252ad1be2c89b69c2b068fc378daa952ba7f163c4a11628f55a4df523b3ef846040518082815260200191505060405180910390a3600190509392505050565b6000809054906101000a900473ffffffffffffffffffffffffffffffffffffffff1673ffffffffffffffffffffffffffffffffffffffff163373ffffffffffffffffffffffffffffffffffffffff16141515610c9457600080fd5b80600160006101000a81548173ffffffffffffffffffffffffffffffffffffffff021916908373ffffffffffffffffffffffffffffffffffffffff16021790555050565b601281565b600160009054906101000a900473ffffffffffffffffffffffffffffffffffffffff1673ffffffffffffffffffffffffffffffffffffffff163373ffffffffffffffffffffffffffffffffffffffff16141515610d3957600080fd5b600160009054906101000a900473ffffffffffffffffffffffffffffffffffffffff166000806101000a81548173ffffffffffffffffffffffffffffffffffffffff021916908373ffffffffffffffffffffffffffffffffffffffff160217905550565b601260ff16600a0a81565b6000809054906101000a900473ffffffffffffffffffffffffffffffffffffffff1673ffffffffffffffffffffffffffffffffffffffff163373ffffffffffffffffffffffffffffffffffffffff16141515610e0357600080fd5b610e7681600260008060009054906101000a900473ffffffffffffffffffffffffffffffffffffffff1673ffffffffffffffffffffffffffffffffffffffff1673ffffffffffffffffffffffffffffffffffffffff168152602001908152602001600020546118ff90919063ffffffff16565b600260008060009054906101000a900473ffffffffffffffffffffffffffffffffffffffff1673ffffffffffffffffffffffffffffffffffffffff1673ffffffffffffffffffffffffffffffffffffffff16815260200190815260200160002081905550610f2c81600260008073ffffffffffffffffffffffffffffffffffffffff1673ffffffffffffffffffffffffffffffffffffffff1681526020019081526020016000205461191b90919063ffffffff16565b600260008073ffffffffffffffffffffffffffffffffffffffff1673ffffffffffffffffffffffffffffffffffffffff16815260200190815260200160002081905550600073ffffffffffffffffffffffffffffffffffffffff166000809054906101000a900473ffffffffffffffffffffffffffffffffffffffff1673ffffffffffffffffffffffffffffffffffffffff167fddf252ad1be2c89b69c2b068fc378daa952ba7f163c4a11628f55a4df523b3ef836040518082815260200191505060405180910390a350565b6000600260008373ffffffffffffffffffffffffffffffffffffffff1673ffffffffffffffffffffffffffffffffffffffff168152602001908152602001600020549050919050565b60008060009054906101000a900473ffffffffffffffffffffffffffffffffffffffff1673ffffffffffffffffffffffffffffffffffffffff163373ffffffffffffffffffffffffffffffffffffffff1614151561109f57600080fd5b600083511115156110af57600080fd5b601260ff16600a0a82029150600260003373ffffffffffffffffffffffffffffffffffffffff1673ffffffffffffffffffffffffffffffffffffffff16815260200190815260200160002054821115151561110957600080fd5b60008090505b835181101561135c576111818360026000878581518110151561112e57fe5b9060200190602002015173ffffffffffffffffffffffffffffffffffffffff1673ffffffffffffffffffffffffffffffffffffffff1681526020019081526020016000205461191b90919063ffffffff16565b60026000868481518110151561119357fe5b9060200190602002015173ffffffffffffffffffffffffffffffffffffffff1673ffffffffffffffffffffffffffffffffffffffff1681526020019081526020016000208190555061124e83600260008060009054906101000a900473ffffffffffffffffffffffffffffffffffffffff1673ffffffffffffffffffffffffffffffffffffffff1673ffffffffffffffffffffffffffffffffffffffff168152602001908152602001600020546118ff90919063ffffffff16565b600260008060009054906101000a900473ffffffffffffffffffffffffffffffffffffffff1673ffffffffffffffffffffffffffffffffffffffff1673ffffffffffffffffffffffffffffffffffffffff1681526020019081526020016000208190555083818151811015156112c057fe5b9060200190602002015173ffffffffffffffffffffffffffffffffffffffff166000809054906101000a900473ffffffffffffffffffffffffffffffffffffffff1673ffffffffffffffffffffffffffffffffffffffff167fddf252ad1be2c89b69c2b068fc378daa952ba7f163c4a11628f55a4df523b3ef856040518082815260200191505060405180910390a3808060010191505061110f565b506001905092915050565b601260ff16600a0a6302faf0800281565b6040805190810160405280600381526020017f414d54000000000000000000000000000000000000000000000000000000000081525081565b600081600260003373ffffffffffffffffffffffffffffffffffffffff1673ffffffffffffffffffffffffffffffffffffffff168152602001908152602001600020541015151561140157600080fd5b61145382600260003373ffffffffffffffffffffffffffffffffffffffff1673ffffffffffffffffffffffffffffffffffffffff168152602001908152602001600020546118ff90919063ffffffff16565b600260003373ffffffffffffffffffffffffffffffffffffffff1673ffffffffffffffffffffffffffffffffffffffff168152602001908152602001600020819055506114e882600260008673ffffffffffffffffffffffffffffffffffffffff1673ffffffffffffffffffffffffffffffffffffffff1681526020019081526020016000205461191b90919063ffffffff16565b600260008573ffffffffffffffffffffffffffffffffffffffff1673ffffffffffffffffffffffffffffffffffffffff168152602001908152602001600020819055508273ffffffffffffffffffffffffffffffffffffffff163373ffffffffffffffffffffffffffffffffffffffff167fddf252ad1be2c89b69c2b068fc378daa952ba7f163c4a11628f55a4df523b3ef846040518082815260200191505060405180910390a36001905092915050565b60048060000154908060010154908060020154908060030154905084565b6000600360008473ffffffffffffffffffffffffffffffffffffffff1673ffffffffffffffffffffffffffffffffffffffff16815260200190815260200160002060008373ffffffffffffffffffffffffffffffffffffffff1673ffffffffffffffffffffffffffffffffffffffff16815260200190815260200160002054905092915050565b60008060009054906101000a900473ffffffffffffffffffffffffffffffffffffffff1673ffffffffffffffffffffffffffffffffffffffff163373ffffffffffffffffffffffffffffffffffffffff1614151561169c57600080fd5b6004600001546004600101541080156116c15750600460030154600460020154014210155b156118f75761171d600460000154600260008073ffffffffffffffffffffffffffffffffffffffff1673ffffffffffffffffffffffffffffffffffffffff168152602001908152602001600020546118ff90919063ffffffff16565b600260008073ffffffffffffffffffffffffffffffffffffffff1673ffffffffffffffffffffffffffffffffffffffff168152602001908152602001600020819055506117d8600460000154600260008060009054906101000a900473ffffffffffffffffffffffffffffffffffffffff1673ffffffffffffffffffffffffffffffffffffffff1673ffffffffffffffffffffffffffffffffffffffff1681526020019081526020016000205461191b90919063ffffffff16565b600260008060009054906101000a900473ffffffffffffffffffffffffffffffffffffffff1673ffffffffffffffffffffffffffffffffffffffff1673ffffffffffffffffffffffffffffffffffffffff1681526020019081526020016000208190555061185960046000015460046001015461191b90919063ffffffff16565b6004600101819055506000809054906101000a900473ffffffffffffffffffffffffffffffffffffffff1673ffffffffffffffffffffffffffffffffffffffff16600073ffffffffffffffffffffffffffffffffffffffff167fddf252ad1be2c89b69c2b068fc378daa952ba7f163c4a11628f55a4df523b3ef6004600001546040518082815260200191505060405180910390a3600190506118fc565b600090505b90565b600082821115151561191057600080fd5b818303905092915050565b6000818301905082811015151561193157600080fd5b9291505056fea165627a7a723058200985d2acc09a5011b163a393e84ec997e2cdc287403ddbeb0a59f0f93249c2000029",
  "source": "pragma solidity >=0.4.22 <0.6.0;\r\n\r\nimport \"./SafeMath.sol\";\r\nimport \"./AMToken.sol\";\r\n\r\n\r\ncontract CrowdSale {\r\n    using SafeMath for uint;\r\n\r\n    address public beneficiary;\r\n    uint public fundingGoal;\r\n    uint public price;\r\n    uint public amountRaised;\r\n    uint public deadline;\r\n    bool public isGoalReached = false;\r\n    bool public isCrowdSaleClosed = false;\r\n\r\n    mapping(address => uint) public balanceOf;\r\n    AMToken tokenAM = new AMToken();\r\n\r\n    event GoalReached(address _recipent, uint _totalAmountRaised);\r\n    event FundTransfered(address _recipent, uint _amountEther, bool _isPurchased);\r\n\r\n    constructor (\r\n        address _ifSuccessfulSendFundTo,\r\n        uint _fundGoalInEther,\r\n        uint _deadlineInMinutes,\r\n        uint _costOfEachTokenInEther,\r\n        address _addressOfToken\r\n    )\r\n        public\r\n    {\r\n        beneficiary = _ifSuccessfulSendFundTo;\r\n        fundingGoal = _fundGoalInEther;\r\n        deadline = now + _deadlineInMinutes;\r\n        price = _costOfEachTokenInEther;\r\n        beneficiary = _addressOfToken;\r\n    }\r\n\r\n\r\n    modifier afterDeadline() {\r\n        require(now >= deadline);\r\n        _;\r\n    }\r\n\r\n\r\n    function () payable external {\r\n        require(!isCrowdSaleClosed);\r\n\r\n        uint amount = msg.value;\r\n        balanceOf[msg.sender] = balanceOf[msg.sender].add(amount);\r\n        amountRaised = amountRaised.add(amount);\r\n        tokenAM.transfer(msg.sender, amount/price);\r\n\r\n        emit FundTransfered(msg.sender, amount, true);\r\n    }\r\n\r\n\r\n    function checkGoalReached () public afterDeadline {\r\n        if(amountRaised >= fundingGoal) {\r\n            isGoalReached = true;\r\n        }\r\n        isCrowdSaleClosed = true;\r\n    }\r\n\r\n\r\n    function withdraw() public afterDeadline {\r\n        if(!isGoalReached) {\r\n            uint amount = balanceOf[msg.sender];\r\n            balanceOf[msg.sender] = 0;\r\n\r\n            if(amount > 0) {\r\n                if(msg.sender.send(amount)) {\r\n                    emit FundTransfered(msg.sender, amount, false);\r\n                }\r\n                else {\r\n                    balanceOf[msg.sender] = amount;\r\n                }\r\n            }\r\n        }\r\n        else if (isGoalReached && msg.sender == beneficiary) {\r\n            if(msg.sender.send(amountRaised)) {\r\n                emit FundTransfered(msg.sender, amountRaised, false);\r\n            }\r\n            else {\r\n                isGoalReached = false;\r\n            }\r\n        }\r\n    }\r\n}\r\n",
  "sourcePath": "D:/ProgramFiles/XAMPP/htdocs/Blockchain/ERC20Token/contracts/Crowdsale.sol",
  "compiler": {
    "name": "solc",
    "version": "0.5.0+commit.1d4f565a.Emscripten.clang"
  },
  "schemaVersion": "3.0.1",
  "updatedAt": "2019-02-07T14:46:46.861Z",
  "devdoc": {
    "methods": {}
  },
  "userdoc": {
    "methods": {}
  }
}